:020000040000FA
:1000000040020020F100000017010000D5000000B0
:1000100000000000000000000000000000000000E0
:100020000000000000000000000000001B010000B4
:1000300000000000000000001D0100001F01000082
:100040002101000021010000210100002101000028
:100050002101000021010000210100002101000018
:100060002101000021010000F90D00001D0E00001B
:100070003D0E0000210100002101000021010000CF
:1000800021010000210100002101000021010000E8
:1000900021010000210100002101000021010000D8
:1000A00021010000210100002101000021010000C8
:1000B00021010000210100002101000021010000B8
:1000C0000348854600F0AEF800480047FD150000E3
:1000D0004002002004207146084202D0EFF309805C
:1000E00001E0EFF308807146004A10476107000005
:1000F0000C480D4901600D4901600D4901600D4A30
:100100000D4911600D4A0E491160002101600D4832
:1001100080470D480047FEE7FEE7FEE7FEE7FEE703
:10012000FEE700000001004059000000160000003A
:100130008800000024000040A55A00008002004012
:1001400001000000AD0C0000C100000030B50B46FE
:10015000014600202022012409E00D46D5409D42A1
:1001600005D31D469540491B254695404019154627
:10017000521E002DF1DC30BD70B50024254600284C
:1001800001DA01244042002901DA01254942FFF742
:10019000DDFFAC4200D04042002C00D0494270BD8F
:1001A00003460B439B0703D009E008C9121F08C090
:1001B000042AFAD203E00B780370401C491C521E3B
:1001C000F9D27047F0B51FB40646002082B005464C
:1001D0004024019100901BE0019922460F463046D1
:1001E00000F042F8049A059B801A994110D31046FA
:1001F0001946224600F028F8361A8F410197224608
:1002000001200021009F00F01FF838184D41009098
:100210002046641E0028DFDC019B009829463246F8
:1002200007B0F0BD064C0125064E05E0E36807CC9B
:100230002B430C3C98471034B442F7D3FFF744FFEC
:10024000A8190000C819000010B5202A04DB0146D7
:10025000203A9140002010BD914020239C1A034673
:10026000E3401943904010BD10B5202A04DB084636
:10027000203AD040002110BD0B46D340D04020246E
:10028000A21A91400843194610BD00000EB5094955
:100290000EC900910192810F8A00029369468A5823
:1002A000054951184A68C306DB0E012098400243F5
:1002B0004A600EBD2C1900000002004002490A6885
:1002C00002430A60704700000002004010B500F0D1
:1002D000A3FC0148006810BD00000020024800682F
:1002E000C00700D001487047000200400048E80104
:1002F00004480068800702D50120C0037047002031
:10030000704700000002004010B500F085FC044872
:10031000406B41070348490F0068C84010BD00000A
:10032000000200400000002010B500F075FC0448F9
:10033000406B4006410F03480068C84010BD0000F4
:10034000000200400000002008B511A0006811491B
:1003500000900968002005221204114216D10803FA
:1003600001D50D4800E00D488A030FD40A04920F0E
:100370006B469B5CCA058904D20DC90E891C800896
:10038000921C59435043FFF7E1FE800008BD000076
:100390000102020440020040001BB7000048E801CF
:1003A000F3B5124881B005690F4610200F4C054087
:1003B000403C2068042630432060102000F050F8B4
:1003C0002069072108432061206A000900013843A1
:1003D00020622069884301990843206100F01CFCD9
:1003E000002D02D12068B0432060FEBD40020040D5
:1003F000F0B5194B88B0F0CB009401ACE0C478CBD9
:1004000004AF78C7840A23061B0E0ED003039B0F8C
:100410009B0004ADEB58114D5B19E5B28405E40E69
:10042000A5401C68AC4314431C60420E520710D018
:100430008200920F92006B469A58084B103BD218DC
:1004400003015B0FC001C00E83401068984308434E
:10045000106008B0F0BD00000C1900002002004040
:1004600010B504460749084B05E00A46491E002A14
:1004700001DC002010BD1A6920469043F5D101200F
:1004800010BD000080F520004002004010B500F0D3
:1004900075FA00F087F80F20800201F0F9F80028C3
:1004A00002DA05A000F01CFE0221102000F06CF919
:1004B00000F0B4FA10BD00004661696C65642074F8
:1004C0006F20736574204461746120466C617368A9
:1004D00020626173652061646472657373210D0A23
:1004E00000000000024801684908490001607047A7
:1004F00000C0004010B55921094816228823016028
:10050000026003600468002CF9D0064841680422A8
:10051000114341600448016801221143016010BD8C
:10052000000100400002004000C0004003460121DD
:1005300000B5002049058B4203D100F017F80028D0
:1005400011D109492222CA604B6001220A610A695D
:10055000D207FCD10A68520605D50868402210432C
:1005600008600020C04300BD00C0004000200B49CF
:100570002222CA60012252054A60094A8A60012289
:100580000A610A69D207FCD10A68520605D50868D3
:100590004022104308600020C043704700C0004064
:1005A00003AA550002480168012211430160704707
:1005B00000C0004005490022CA604860012008616F
:1005C0000869C007FCD188687047000000C000407F
:1005D00030B5044603200B4600250005FFF7EAFF6F
:1005E0002060032B01D96D1E0CE0012B03D90648B6
:1005F000FFF7E0FF6060022B04D90348001DFFF7FE
:10060000D9FFA060284630BD04003000054A2123F0
:10061000D36050609160012010611069C007FCD167
:100620007047000000C00040F3B50646002081B0CE
:100630000446009010E0A500032000052818715919
:100640000746FFF7E3FF3846FFF7B4FF71598842CA
:1006500001D001200090641C02988442EBD30098E2
:10066000FEBD000010B501229103024800F004F81D
:1006700010BD000040400040F0B5002301273C467B
:100680009C400C4208D005685C000326A640B54398
:100690001646A640354305605B1C102BEFD3F0BD1A
:1006A0001CB50020694608700871012000F00AF9A5
:1006B00001A9022000F006F96946087909780202CA
:1006C0000A43254CFF28E26001D0FF2901D12348CD
:1006D000E0606946032000F0F5F868460078607035
:1006E000FF2801D1042060706946042000F0EAF878
:1006F00068460078A070FF2801D11B20A0706946D1
:10070000052000F0DFF868460078E070FF2801D18E
:100710000120E0706946062000F0D4F868460078B1
:100720002071FF2801D10D2020716946072000F0BB
:10073000C9F8684600786071FF2801D13B206071DC
:100740006946082000F0BEF868460078A071FF28CE
:1007500001D11E20A0711CBD10000020E407000084
:10076000044603A000F0BCFC204601F00BF8FEE7B5
:10077000496E2048617264204661756C742048613E
:100780006E646C65720A000010B50C4C80286160C4
:10079000A06001D9012010BD082901D9022010BD97
:1007A00000F040FF0021FF22206101E04254491C7B
:1007B000A3689942FAD3002010BD00002000002059
:1007C00002488069C000C00F704700000000074069
:1007D000FEB536480024416925462646344800685F
:1007E00040020818FFF7E6FE07463148304A006825
:1007F0005268411C914203D100207F1C009001E00F
:10080000401C0090FFF776FE29490869025DFF2A27
:1008100010D0005D2204000602432448BBB24169A7
:100820001A4300984002019008181146FFF7EEFEA7
:10083000042715E0641CE9E70069005DFF280FD07C
:10084000002E2DD021040006014318482943426997
:100850000198C0191018FFF7D9FE00252E463F1D3C
:100860001348641C81688C42E6D30446E760002E7E
:100870000CD01048294601430C4842690198C01920
:100880001018FFF7C3FEE068801CE060074840696D
:10089000216849024018FFF749FE00982060FEBD1C
:1008A0000002204305430126DAE7000000C00040B3
:1008B000200000200000FFFF10B500F01FF900F03D
:1008C00063F910BD802801D303207047024A1269E2
:1008D000105C0870002070472000002010B500F068
:1008E0004DF80420FFF7EAFC1020FFF7B9FD0021C6
:1008F0000720FFF755FD164C2046FFF7C7FC0121E6
:10090000002289062046FFF773FD124C2046FFF7B0
:10091000BDFC0022E1032046FFF76AFD0E4C204695
:10092000FFF7B4FC0121002249052046FFF760FDD6
:1009300000F072F9A007C16BFF2212049143332229
:1009400052048918C16305490020086010BD0000E9
:10095000103D805F0400005F0500405F0001004023
:100960000121020E890751188B680122824013432E
:100970008B608868904388607047000010B55921EB
:100980000448162288230160026003600468002C7A
:10099000F9D010BD0001004010B5194C2078410677
:1009A0002DD5BF2108402070217B012000F052FB93
:1009B000A0890004010E022000F04CFB61780320A6
:1009C00000F048FBA178042000F044FBE17805200A
:1009D00000F040FB2179062000F03CFB6179072004
:1009E00000F038FBA179082000F034FBFFF77AFD16
:1009F000044900200860044904A000F071FB10BD08
:100A0000100000200001004064190000200D0A259C
:100A1000732021200D0A0D0A00000000F8B5FFF731
:100A200069FD2B4E7068400000F0FCFD0746002475
:100A3000284D07E0686961024018FFF7BBFD6100BF
:100A40007852641C71688C42F4D30020224A05E07D
:100A50004300FB5A934200D03060401C8842F7D3D9
:100A6000306802244100795A9142696906D14002F6
:100A700008181949C943FFF7C9FD25E040020818C5
:100A8000FFF798FD0102090E000EFF291CD0326904
:100A90000424505468693168490209194018FFF765
:100AA00089FD0204C1B2130EFF290DD032695354DF
:100AB0000102090E000EFF2908D050540120400207
:100AC000241D8442E6D3F8BDF460F8BDA41CFBE706
:100AD0002000002000C00040FFFF000006498A6996
:100AE0001202FCD408600A2804D188690002FCD4F0
:100AF0000D200860704700000000074070B51A4CD8
:100B00002578A8062ED5A0790A21401CC0B2A07174
:100B10000646FFF71BFB002902D140200543257044
:100B200000203C2E03D1A0716179491C617161796B
:100B30003C2903D160712179491C2171217918293F
:100B400006D12071A078401CA070E078401CE070B5
:100B5000A3796279217905A000F0C2FA2078DF211B
:100B60000840207070BD00001000002068722E3A0E
:100B70002564203A6D696E3A2025643A20736563D6
:100B80003A2025640A0D000010B58EB030221849B5
:100B900001A8FFF705FB174CE06800F001FD029982
:100BA00040180290A078E17988421FD0E071617806
:100BB00001AB8A00D218803AD36F0122834202DA55
:100BC000A270491C6170E078072800D9E270C8B2B1
:100BD0000C2803D96270E068401CE060E078009067
:100BE000A378627804A0E16800F07AFA0EB010BD34
:100BF0007819000010000020593A25642C204D3A45
:100C000025642C20443A25642C205765656B6C794B
:100C10003A25640A0D000000F8B51D4D28691C49ED
:100C200044071CA000680090640F00204031096850
:100C300005221204114216D1080301D5164800E01E
:100C400016488A030FD40A04920F6B469B5CCA05B0
:100C50008904D20DC90E891C8008921C5943504347
:100C6000FFF774FA80000E4E022CB06002D00D49DE
:100C7000A0000858296A0907090F491CFFF766FAFE
:100C8000094930604A108018FFF760FA7060F8BDBB
:100C90000002004001020204001BB7000048E80106
:100CA00000000020A418000040420F0010B5592198
:100CB0000A48162388220160036002600468002C41
:100CC000F9D007490B680722120593430B600B68A4
:100CD00013430B600021016010BD000000010040C3
:100CE0000002004010B5094C0122D106204600F058
:100CF00063F82068610408432060C8140449086050
:100D0000206889050843206010BD000000100540E0
:100D100000E100E010B50A4C7D220121D200C90695
:100D2000204600F049F82068210608432060881416
:100D300004490860206889050843206010BD000050
:100D40002010054000E100E010B588B004462022E4
:100D500015496846FFF724FA144B144A1448203307
:100D6000944202D14069000A0BE09C4202D14069E2
:100D7000000B06E00F4940698C4201D1000C00E0F5
:100D8000000D4107490F022904D088006946085820
:100D900008B010BD944201D09C4202D1FFF7B4FAD2
:100DA000F6E7FFF7C1FAF3E7441900000000054039
:100DB0000002004000100540F7B517460646FFF751
:100DC000C3FF054600244008B84201D8022008E0CD
:100DD00039462846FFF7BAF9040E02D0611CFFF726
:100DE000B5F90199214331607060641C604301468C
:100DF0002846FFF7ABF9FEBD06488168C907C90F51
:100E000006D001218160044820220178114301703D
:100E100070470000001005401000002010B5064883
:100E20008168C907C90F05D00121816000F0FEFC6F
:100E300000F0CAFB10BD0000201005400248C16947
:100E4000C90500D4C06970470000074010B51E48AE
:100E5000FFF786FD1D4CE1214902204600F07CF899
:100E60001421204600F0EAF8A068F02188431030F1
:100E7000A0606068112108436060012014490003EC
:100E80000860FFF723FA014612A000F029F9FFF7E6
:100E900025FA014616A000F023F9FFF729FA0146CA
:100EA00019A000F01DF9FFF72FFA01461CA000F071
:100EB00017F9FFF739FA014620A000F011F9A069EF
:100EC000C000FCD510BD0000100000040000074069
:100ED00000E100E00D0A434C4B5F476574435055F9
:100EE00046726571203A202538640D0A0000000022
:100EF000434C4B5F47657448585446726571203ABD
:100F0000202538640D0A0000434C4B5F4765744C44
:100F1000585446726571203A202538640D0A000045
:100F2000434C4B5F47657450434C4B304672657180
:100F3000203A202538640D0A00000000434C4B5F26
:100F400047657450434C4B3146726571203A2025F9
:100F500038640D0A00000000F0B587B00F46044663
:100F600000252E4618222E496846FFF719F92D490B
:100F70002D482E4A8C4205D14369006A5B015D0F02
:100F8000000A0FE02A4B9C4206D14369006A5B00CD
:100F90005D0F0004060F07E0944205D1C369006BA2
:100FA0005B015D0F0607360F002020630320E06021
:100FB000A068204B1840A060012D02D0042D04D061
:100FC0000DE0FFF7C1F9019009E08C4201D0944295
:100FD00002D1FFF799F901E0FFF7A6F90490002F7D
:100FE0001BD0A90068464058711CFFF7AFF80546B2
:100FF000790840183946FFF7A9F80F49801E884242
:1010000007D9F90068183946FFF7A0F80009801ED3
:1010100002E0032109070843606207B0F0BD000049
:10102000C4180000000007400002004000200740F4
:10103000001007400FFFF0FFFFFF0000026A120AD6
:1010400012020A43026241680122D2021143416046
:1010500070470000F8B5204E0446B0680D46844243
:1010600001D90320F8BD3069005DA84224D0FFF704
:1010700041FAF068194F810723D079693268801EE0
:10108000520289180818FFF795FA21042A0680B23F
:10109000114301437869326852028218F068801E59
:1010A0001018FFF7B3FA30690555F068C11FFF3912
:1010B000F83903D0801CF0600020F8BDFFF788FBF2
:1010C000FAE7012229021204A21A11437A6933684D
:1010D0005B021818E4E700002000002000C0004078
:1010E0000FB410B503A9044B044A029800F018F895
:1010F00010BC08BC04B01847951500000C00002077
:1011000002E008C8121F08C1002AFAD170477047D0
:10111000002001E001C1121F002AFBD1704700002E
:10112000FFB591B00F460546002606E025280AD0F7
:10113000149A139990476D1C761C28780028F5D1D5
:10114000304615B0F0BD002400940121F34A02940A
:1011500000E004436D1C2B780846203B9840104269
:10116000F7D128782A280ED0022128780246303A72
:10117000092A15D8009A0A235A43303A80180C439A
:101180006D1C0090F1E701CF0090002805DA0120E6
:1011900040030443009840420090022004436D1C29
:1011A00028782E2815D10420044368786D1C2A283D
:1011B0000AD101CF6D1C02900BE002990A22514323
:1011C000303940186D1C02902878014630390929C1
:1011D000F3D928786C2810D006DC4C281AD068285F
:1011E0000ED06A2817D104E0742813D07A2812D1BF
:1011F00010E00120400504430CE00121090501E055
:10120000032109050C436978814203D101200005BF
:1012100024186D1C6D1C287803906E281ED00CDCE1
:10122000632831D004DC00288AD0582811D1B2E0DC
:1012300064287BD069280CD178E073282DD004DC99
:101240006F2870D0702804D1A7E075286CD078285A
:101250006BD0149A13999047761C62E06002400F9D
:10126000022807D003280AD0042838680AD006606C
:101270003F1D56E03868F11706604160F8E73868AE
:101280000680F5E70670F3E73878694608740020B1
:10129000487404A80390012003E0386803900020FC
:1012A000C0433F1D61070FD5002101E00199491C92
:1012B000029A0191914213DA8142F7DB019A039974
:1012C000895C0029F2D10BE0002101E00199491C61
:1012D00001918142FADB019A0399895C0029F5D1D9
:1012E00001990098139A401A00902146149B00F02F
:1012F0003BF901998019461807E003980399007893
:10130000491C0391149A139990470198401E01902B
:10131000401CF2D12146149B139A009800F014F956
:1013200086196D1C09E741E033E034E00A20002112
:10133000049005916002410F022905D001CFC21728
:101340009446032905D007E0FF1DFF08FF0003CFE7
:1013500006E000B2C2179446042902D140B2C11778
:101360008C4600226146944506DA0A460021404236
:1013700091418C462D2102E0210504D52B216A469E
:101380001176012103E0E10701D02021F7E7019167
:1013900054E00A200BE0102009E010200490002106
:1013A0000420044308200591029003E00820002156
:1013B000059104906002410F022905D001CF00225F
:1013C0009446032906D006E0FF1DFF08FF0003CF67
:1013D0008C4603E080B2042900D1C0B20021019103
:1013E00021072BD50399702906D0049A1021059B5B
:1013F0004A401A4305D00EE040216A461176012189
:1014000008E06146014306D030216A46117603990F
:10141000517602210191049A0821059B4A401A4302
:101420000CD16146014301D1610707D530216A46DD
:101430001176012101910299491E029103995829BF
:1014400004D037A103910FA90F910DE039A1F9E75D
:101450006146059B049AFEF7B5FE039B8C469B5C98
:101460000F9A521E0F92137061460143F0D10F98EC
:1014700007A9081A20300390600704D50120000452
:101480008443029801E0012002900399884201DD23
:10149000401A00E0002041180290019809180098B5
:1014A000401A0090E00306D42146149B139A00983A
:1014B00000F05AF886190020049008E006A9085C9C
:1014C000149A139990470498401C761C0490019933
:1014D0008842F3DBE0030CD52146149B139A009855
:1014E00000F042F8861904E0149A302013999047CE
:1014F000761C0299481E02900029F5DC08E00F983E
:101500000F990078491C0F91149A13999047761CF3
:101510000399481E03900029F1DCFBE6092801002D
:101520003031323334353637383961626364656659
:10153000000000003031323334353637383941421B
:101540004344454600000000F8B5044600251E4609
:101550001746880404D405E039462020B0476D1CA6
:10156000641EF9D52846F8BDFFB50446002581B0B4
:101570001E46C80301D5302700E02027880404D583
:1015800005E038460399B0476D1C641EF9D528461E
:1015900005B0F0BD10B50446FFF7A0FA204610BD17
:1015A00010B5FF2104469131FEF7E6FD002907D072
:1015B000A10707D164212046FEF7DEFD002901D0F6
:1015C000012010BD002010BD0A490878C2070FD0C5
:1015D0004008400008704889421C4A817D22D200A0
:1015E000904205D10120488103498A6B42408A63B9
:1015F000704700001000002040480040FFF76EF9DF
:10160000FFF724FCFFF72EF8FFF76CFBFFF782FBD8
:10161000FEF73CFFFFF744F8FFF74EF9FFF7BCF980
:10162000FAE70000F0B50B30C108C900144F0026DE
:10163000144A0FE003688B420BD38B4205D95C1A26
:101640004318456830C3083B00E04368136002C09C
:1016500004E0021D10680028ECD13046002803D1B8
:101660003868002801D00020F0BD064A0648106006
:10167000064A121AD208D20044C001203860D7E7C7
:1016800038000020340000204400002040000020EA
:101690007CB5044602216846FEF79AFF0025ED431B
:1016A000002803DA1EA0FFF71BFD17E00098C00713
:1016B00004D10198A04201D100207CBD1F480168DF
:1016C0001022114301600098022140084000009060
:1016D00001946846FEF7A8FF002801DA28467CBD81
:1016E00002216846FEF774FF0098C00702D10198F6
:1016F000A04208D012A0FFF7F3FCFEF7F3FE184952
:1017000000200860EAE7214616A0FFF7E9FCFFF792
:1017100057F80028FBD0012081078860CCE7000043
:101720000A52656164205573657220436F6E666965
:1017300067206661696C6564210A000000C0004092
:101740004572726F723A2050726F6772616D2043FA
:101750006F6E666967204661696C6564210A0000E6
:10176000000100400A536574204461746120466C96
:101770006173682062617365206173203078257819
:101780002E0A000010B50446016810A0FFF7A8FC5F
:1017900011A06168FFF7A4FC12A0A168FFF7A0FCEC
:1017A00013A0E168FFF79CFC14A02169FFF798FCE7
:1017B00015A06169FFF794FC16A0A169FFF790FCE2
:1017C00017A0E169FFF78CFC10BD000072302020EB
:1017D0003D20307825780A00723120203D20307875
:1017E00025780A00723220203D20307825780A00C2
:1017F000723320203D20307825780A007231322063
:101800003D20307825780A006C7220203D20307809
:1018100025780A00706320203D20307825780A0062
:10182000707372203D20307825780A0070B51B4D0A
:1018300001212889401C80B228812C7806460C435F
:101840002C700521FEF782FC002902D102200443FE
:101850002C700A213046FEF779FC002903D1287844
:1018600004210843287032213046FEF76FFC00291E
:1018700003D1287808210843287064213046FEF7F8
:1018800065FC002903D128781021084328700448FA
:10189000864201D30020288170BD00001000002086
:1018A000DCFF00000048E8010080000000D8B80517
:1018B00000960000006CDC02000000000000000048
:1018C000006CDC020048E80100000000008000001D
:1018D000006CDC0200000000009600000048E801F7
:1018E0000000000000800000006CDC02000000002E
:1018F000009600000048E8010000000000800000A1
:10190000006CDC02000000000096000000000000F7
:1019100004000000080000000C00000000000000AF
:1019200000000000000000001000000000000000A7
:101930000400000008000000000000000400000097
:10194000080000000048E8010080000000000000DE
:1019500000000000000000000096000000000000F1
:10196000006CDC02536176654461746554696D6591
:10197000546F466C617368001F0000001C0000007B
:101980001F0000001E0000001F0000001E000000DD
:101990001F0000001F0000001E0000001F000000CC
:1019A0001E0000001F000000C819000000000020F9
:1019B0003C00000000110000041A00003C00002060
:1019C000040200001011000000D8B80560000000FB
:1019D00000D8B8050000000000041B010D3B1E00EC
:1019E00000000100E407000000000000000000000B
:1019F00000000000000000000000000000000000E7
:041A000000000000E2
:04000005000000F106
:00000001FF
