:020000040000FA
:1000000020020020F100000017010000D5000000D0
:1000100000000000000000000000000000000000E0
:100020000000000000000000000000001B010000B4
:1000300000000000000000001D0100001F01000082
:100040002101000021010000210100002101000028
:100050002101000021010000210100002101000018
:100060002101000021010000B1080000D5080000B6
:10007000F50800002101000021010000210100001D
:1000800021010000210100002101000021010000E8
:1000900021010000210100002101000021010000D8
:1000A00021010000210100002101000021010000C8
:1000B00021010000210100002101000021010000B8
:1000C0000348854600F0AEF80048004729100000BC
:1000D0002002002004207146084202D0EFF309807C
:1000E00001E0EFF308807146004A1047C9040000A0
:1000F0000C480D4901600D4901600D4901600D4A30
:100100000D4911600D4A0E491160002101600D4832
:1001100080470D480047FEE7FEE7FEE7FEE7FEE703
:10012000FEE700000001004059000000160000003A
:100130008800000024000040A55A00008002004012
:100140000100000065070000C100000030B50B464B
:10015000014600202022012409E00D46D5409D42A1
:1001600005D31D469540491B254695404019154627
:10017000521E002DF1DC30BD70B50024254600284C
:1001800001DA01244042002901DA01254942FFF742
:10019000DDFFAC4200D04042002C00D0494270BD8F
:1001A00003460B439B0703D009E008C9121F08C090
:1001B000042AFAD203E00B780370401C491C521E3B
:1001C000F9D27047F0B51FB40646002082B005464C
:1001D0004024019100901BE0019922460F463046D1
:1001E00000F042F8049A059B801A994110D31046FA
:1001F0001946224600F028F8361A8F410197224608
:1002000001200021009F00F01FF838184D41009098
:100210002046641E0028DFDC019B009829463246F8
:1002200007B0F0BD064C0125064E05E0E36807CC9B
:100230002B430C3C98471034B442F7D3FFF744FFEC
:10024000541200007412000010B5202A04DB01468D
:10025000203A9140002010BD914020239C1A034673
:10026000E3401943904010BD10B5202A04DB084636
:10027000203AD040002110BD0B46D340D04020246E
:10028000A21A91400843194610BD00000EB5094955
:100290000EC900910192810F8A00029369468A5823
:1002A000054951184A68C306DB0E012098400243F5
:1002B0004A600EBDEC1100000002004002490A68CD
:1002C00002430A60704700000002004010B500F0D1
:1002D000FFF90148006810BD0000002002480068D6
:1002E000C00700D001487047000200400048E80104
:1002F00004480068800702D50120C0037047002031
:10030000704700000002004010B500F0E1F9044819
:10031000406B41070348490F0068C84010BD00000A
:10032000000200400000002010B500F0D1F90448A0
:10033000406B4006410F03480068C84010BD0000F4
:10034000000200400000002008B511A0006811491B
:1003500000900968002005221204114216D10803FA
:1003600001D50D4800E00D488A030FD40A04920F0E
:100370006B469B5CCA058904D20DC90E891C800896
:10038000921C59435043FFF7E1FE800008BD000076
:100390000102020440020040001BB7000048E801CF
:1003A000F3B5124881B005690F4610200F4C054087
:1003B000403C2068042630432060102000F050F8B4
:1003C0002069072108432061206A000900013843A1
:1003D00020622069884301990843206100F078F980
:1003E000002D02D12068B0432060FEBD40020040D5
:1003F000F0B5194B88B0F0CB009401ACE0C478CBD9
:1004000004AF78C7840A23061B0E0ED003039B0F8C
:100410009B0004ADEB58114D5B19E5B28405E40E69
:10042000A5401C68AC4314431C60420E520710D018
:100430008200920F92006B469A58084B103BD218DC
:1004400003015B0FC001C00E83401068984308434E
:10045000106008B0F0BD0000CC1100002002004088
:1004600010B504460749084B05E00A46491E002A14
:1004700001DC002010BD1A6920469043F5D101200F
:1004800010BD000080F520004002004010B50122A0
:100490009103024800F004F810BD00004040004005
:1004A000F0B5002301273C469C400C4208D005686B
:1004B0005C000326A640B5431646A64035430560BA
:1004C0005B1C102BEFD3F0BD044603A000F01EFB15
:1004D000204600F0B7FDFEE7496E204861726420B7
:1004E0004661756C742048616E646C65720A000028
:1004F00010B500F069F800F0A3F810BD70B55920F0
:100500001E4C162288212060226021602368002B67
:10051000F9D00420FFF7D2FE1020FFF7A1FF002141
:100520000720FFF73DFF164D2846FFF7AFFE0121DC
:10053000002289062846FFF75BFF124D2846FFF789
:10054000A5FE0022E9032846FFF752FF0E4D28467C
:10055000FFF79CFE0121002249052846FFF748FFCE
:1005600000F0B6F8A807C16BFF22120491433322B2
:1005700052048918C1630020206070BD0001004052
:10058000103D805F0400005F0500405F0121020E06
:10059000890751188B680122824013438B60886859
:1005A000904388607047000006498A691202FCD4B3
:1005B00008600A2804D188690002FCD40D20086074
:1005C000704700000000074010B5154C20788006E9
:1005D00025D5A0790021401CC0B2A0713C2803D1D0
:1005E000A1716079401C607160793C2803D1617110
:1005F0002079401C20712079182806D12171A0781B
:10060000401CA070E078401CE070A37962792179E9
:1006100004A000F07BFA2078DF210840207010BD94
:100620001000002068722E3A2564203A6D696E3AF7
:100630002025643A207365633A2025640A0D000082
:1006400010B58EB03022184901A8FFF7A9FD174C4C
:10065000E06800F0BBFC029940180290A078E179B4
:1006600088421FD0E071617801AB8A00D218803ACD
:10067000D36F0122834202DAA270491C6170E078D4
:10068000072800D9E270C8B20C2803D96270E0686C
:10069000401CE060E0780090A378627804A0E168F4
:1006A00000F034FA0EB010BD24120000100000203B
:1006B000593A25642C204D3A25642C20443A25646F
:1006C0002C205765656B6C793A25640A0D00000093
:1006D000F8B51D4D28691C4944071CA0006800900E
:1006E000640F00204031096805221204114216D11E
:1006F000080301D5164800E016488A030FD40A04FF
:10070000920F6B469B5CCA058904D20DC90E891CE9
:100710008008921C59435043FFF718FD80000E4E8D
:10072000022CB06002D00D49A0000858296A0907C0
:10073000090F491CFFF70AFD094930604A1080186B
:10074000FFF704FD7060F8BD0002004001020204E2
:10075000001BB7000048E801000000206411000001
:1007600040420F0010B559210A4816238822016023
:10077000036002600468002CF9D007490B68072267
:10078000120593430B600B6813430B60002101605B
:1007900010BD0000000100400002004010B5094CEF
:1007A0000122D106204600F063F820686104084366
:1007B0002060C81404490860206889050843206047
:1007C00010BD00000010054000E100E010B50A4C2B
:1007D0007D220121D200C906204600F049F8206898
:1007E00021060843206088140449086020688905B0
:1007F0000843206010BD00002010054000E100E02B
:1008000010B588B00446202215496846FFF7C8FC99
:10081000144B144A14482033944202D14069000A10
:100820000BE09C4202D14069000B06E00F49406991
:100830008C4201D1000C00E0000D4107490F022954
:1008400004D088006946085808B010BD944201D011
:100850009C4202D1FFF758FDF6E7FFF765FDF3E78D
:100860000412000000000540000200400010054096
:10087000F7B517460646FFF7C3FF054600244008B4
:10088000B84201D8022008E039462846FFF75EFC4E
:10089000040E02D0611CFFF759FC0199214331601D
:1008A0007060641C604301462846FFF74FFCFEBDA4
:1008B00006488168C907C90F06D001218160044834
:1008C000202201781143017070470000001005409C
:1008D0001000002010B506488168C907C90F05D06F
:1008E0000121816000F002FC00F084FB10BD0000DB
:1008F000201005400248C169C90500D4C06970478D
:100900000000074010B51E48FFF740FE1D4CE121D6
:100910004902204600F07CF81421204600F0EAF855
:10092000A068F02188431030A0606068112108435E
:1009300060600120144900030860FFF7C7FC01460E
:1009400012A000F0E3F8FFF7C9FC014616A000F082
:10095000DDF8FFF7CDFC014619A000F0D7F8FFF74E
:10096000D3FC01461CA000F0D1F8FFF7DDFC0146E6
:1009700020A000F0CBF8A069C000FCD510BD00009D
:10098000100000040000074000E100E00D0A434CA5
:100990004B5F47657443505546726571203A202578
:1009A00038640D0A00000000434C4B5F47657448F3
:1009B000585446726571203A202538640D0A0000AB
:1009C000434C4B5F4765744C585446726571203AEE
:1009D000202538640D0A0000434C4B5F4765745076
:1009E000434C4B3046726571203A202538640D0A1D
:1009F00000000000434C4B5F47657450434C4B3143
:100A000046726571203A202538640D0A0000000006
:100A1000F0B587B00F46044600252E4618222E4911
:100A20006846FFF7BDFB2D492D482E4A8C4205D163
:100A30004369006A5B015D0F000A0FE02A4B9C428C
:100A400006D14369006A5B005D0F0004060F07E0F2
:100A5000944205D1C369006B5B015D0F0607360F39
:100A6000002020630320E060A068204B1840A060B5
:100A7000012D02D0042D04D00DE0FFF765FC01909C
:100A800009E08C4201D0944202D1FFF73DFC01E025
:100A9000FFF74AFC0490002F1BD0A900684640587D
:100AA000711CFFF753FB0546790840183946FFF7DC
:100AB0004DFB0F49801E884207D9F9006818394656
:100AC000FFF744FB0009801E02E0032109070843E9
:100AD000606207B0F0BD0000841100000000074014
:100AE0000002004000200740001007400FFFF0FF09
:100AF000FFFF0000026A120A12020A430262416802
:100B00000122D20211434160704700000FB410B5BA
:100B100003A9044B044A029800F018F810BC08BC62
:100B200004B01847C10F00000C00002002E008C804
:100B3000121F08C1002AFAD170477047002001E057
:100B400001C1121F002AFBD170470000FFB591B010
:100B50000F460546002606E025280AD0149A139968
:100B600090476D1C761C28780028F5D1304615B0CA
:100B7000F0BD002400940121F34A029400E00443F4
:100B80006D1C2B780846203B98401042F7D12878FE
:100B90002A280ED0022128780246303A092A15D890
:100BA000009A0A235A43303A80180C436D1C009077
:100BB000F1E701CF0090002805DA0120400304434B
:100BC000009840420090022004436D1C28782E2893
:100BD00015D10420044368786D1C2A280AD101CF5E
:100BE0006D1C02900BE002990A22514330394018E3
:100BF0006D1C02902878014630390929F3D92878EC
:100C00006C2810D006DC4C281AD068280ED06A2830
:100C100017D104E0742813D07A2812D110E00120F3
:100C2000400504430CE00121090501E00321090509
:100C30000C436978814203D10120000524186D1C02
:100C40006D1C287803906E281ED00CDC632831D0F0
:100C500004DC00288AD0582811D1B2E064287BD067
:100C600069280CD178E073282DD004DC6F2870D06F
:100C7000702804D1A7E075286CD078286BD0149A1E
:100C800013999047761C62E06002400F022807D05B
:100C900003280AD0042838680AD006603F1D56E0B1
:100CA0003868F11706604160F8E738680680F5E7B4
:100CB0000670F3E73878694608740020487404A881
:100CC0000390012003E0386803900020C0433F1DDB
:100CD00061070FD5002101E00199491C029A019199
:100CE000914213DA8142F7DB019A0399895C00296A
:100CF000F2D10BE0002101E00199491C01918142F0
:100D0000FADB019A0399895C0029F5D101990098D1
:100D1000139A401A00902146149B00F03BF9019968
:100D20008019461807E0039803990078491C03913D
:100D3000149A139990470198401E0190401CF2D1DB
:100D40002146149B139A009800F014F986196D1C23
:100D500009E741E033E034E00A20002104900591E6
:100D60006002410F022905D001CFC2179446032922
:100D700005D007E0FF1DFF08FF0003CF06E000B22B
:100D8000C2179446042902D140B2C1178C460022F2
:100D90006146944506DA0A460021404291418C465C
:100DA0002D2102E0210504D52B216A46117601216F
:100DB00003E0E10701D02021F7E7019154E00A2088
:100DC0000BE0102009E010200490002104200443CF
:100DD00008200591029003E008200021059104906D
:100DE0006002410F022905D001CF00229446032959
:100DF00006D006E0FF1DFF08FF0003CF8C4603E08E
:100E000080B2042900D1C0B20021019121072BD565
:100E10000399702906D0049A1021059B4A401A4371
:100E200005D00EE040216A461176012108E06146B6
:100E3000014306D030216A4611760399517602218A
:100E40000191049A0821059B4A401A430CD161463E
:100E5000014301D1610707D530216A46117601218E
:100E600001910299491E02910399582904D037A192
:100E700003910FA90F910DE039A1F9E76146059B98
:100E8000049AFFF79FF9039B8C469B5C0F9A521EB6
:100E90000F92137061460143F0D10F9807A9081A09
:100EA00020300390600704D5012000048443029899
:100EB00001E0012002900399884201DD401A00E020
:100EC000002041180290019809180098401A0090DB
:100ED000E00306D42146149B139A009800F05AF8B8
:100EE00086190020049008E006A9085C149A13995A
:100EF00090470498401C761C049001998842F3DBCB
:100F0000E0030CD52146149B139A009800F042F898
:100F1000861904E0149A302013999047761C0299A0
:100F2000481E02900029F5DC08E00F980F99007820
:100F3000491C0F91149A13999047761C0399481EE7
:100F400003900029F1DCFBE609280100303132333F
:100F500034353637383961626364656600000000F5
:100F600030313233343536373839414243444546DF
:100F700000000000F8B5044600251E461746880408
:100F800004D405E039462020B0476D1C641EF9D515
:100F90002846F8BDFFB50446002581B01E46C803AB
:100FA00001D5302700E02027880404D505E0384625
:100FB0000399B0476D1C641EF9D5284605B0F0BDF5
:100FC00010B50446FFF7F0FA204610BD10B5FF211A
:100FD00004469131FFF7D0F8002907D0A10707D1C7
:100FE00064212046FFF7C8F8002901D0012010BD78
:100FF000002010BD0A490878C2070FD04008400001
:1010000008704889421C4A817D22D200904205D155
:101010000120488103498A6B42408A63704700007F
:101020001000002040480040FFF768FAFFF76AFC14
:10103000FFF72CFAFFF7B2FBFFF7C8FBFFF758FAF0
:10104000FCE7000010B50446016810A0FFF75EFD44
:1010500011A06168FFF75AFD12A0A168FFF756FDC5
:1010600013A0E168FFF752FD14A02169FFF74EFDC0
:1010700015A06169FFF74AFD16A0A169FFF746FDBB
:1010800017A0E169FFF742FD10BD0000723020207B
:101090003D20307825780A00723120203D203078BC
:1010A00025780A00723220203D20307825780A0009
:1010B000723320203D20307825780A0072313220AA
:1010C0003D20307825780A006C7220203D20307851
:1010D00025780A00706320203D20307825780A00AA
:1010E000707372203D20307825780A0070B51B4D52
:1010F00001212889401C80B228812C7806460C43A7
:101100002C700521FFF722F8002902D102200443A8
:101110002C700A213046FFF719F8002903D12878EE
:1011200004210843287032213046FFF70FF80029C8
:1011300003D1287808210843287064213046FFF73E
:1011400005F8002903D128781021084328700448A5
:10115000864201D30020288170BD000010000020CD
:10116000DCFF00000048E8010080000000D8B8055E
:1011700000960000006CDC0200000000000000008F
:10118000006CDC020048E801000000000080000064
:10119000006CDC0200000000009600000048E8013E
:1011A0000000000000800000006CDC020000000075
:1011B000009600000048E8010000000000800000E8
:1011C000006CDC020000000000960000000000003F
:1011D00004000000080000000C00000000000000F7
:1011E00000000000000000001000000000000000EF
:1011F00004000000080000000000000004000000DF
:10120000080000000048E801008000000000000025
:101210000000000000000000009600000000000038
:10122000006CDC021F0000001C0000001F0000001A
:101230001E0000001F0000001E0000001F00000034
:101240001F0000001E0000001F0000001E00000024
:101250001F000000741200000000002020000000A9
:101260002C0B00009412000020000020000200005F
:101270003C0B000000D8B8056000000000D8B8059D
:101280000000000000021C02173B1E0000000100CD
:04129000DF07000074
:04000005000000F106
:00000001FF
